:020000040800F2
:10000000FF1F002071240008A9200008B720000865
:1000100000000000000000000000000000000000E0
:10002000000000000000000000000000B9200008EF
:100030000000000000000000BB200008BD200008F8
:10004000C124000800000000C1240008C1240008E9
:10005000C1240008C1240008C1240008AB20000806
:1000600000000000C1240008C1240008C1240008C9
:10007000C1240008C1240008C124000800000000B9
:10008000C1240008C124000800000000C1240008A9
:10009000C1240008C1240008C1240008C1240008AC
:1000A000C1240008C1240008C1240008C12400089C
:1000B000C124000800000000000000000000000053
:1000C00010B5064C2378002B07D1054B002B02D02E
:1000D000044800E000BF0123237010BD7804002015
:1000E00000000000E8250008084B10B5002B03D0E5
:1000F0000749084800E000BF07480368002B00D10B
:1001000010BD064B002BFBD09847F9E7000000001C
:100110007C040020E825000878040020000000008E
:100120007047704770B505000120002D13D02E00D8
:1001300002230024693633702B681A6882431A60E0
:1001400028001C605C609C60FFF7EBFF2000EC6601
:10015000683534702C7070BDF0B5050069352E78A7
:100160000300012E02D00220222E23D101200029DB
:1001700020D0002A1ED01C00683427780018012FD8
:1001800018D001382070D964190050310A804A8093
:100190000022DA663232222E00D012220121002003
:1001A0001B682A709A680A439A601A687F310A436A
:1001B00020701A60F0BDF0B5050069352E78030097
:1001C000012E02D00220122E3DD1012000293AD06A
:1001D000002A38D01C00683427780018012F32D04C
:1001E000013820705965190058310A804A808021F1
:1001F0009A6849018A4206D11A69002A01D1124936
:1002000007E0FF2105E0002A06D11A69002AF8D08C
:100210007F211A005C3211800022DA663232122EFF
:1002200000D02222802100201B682A701A68490011
:100230000A431A609A68FF390A439A601A681F31A4
:100240000A4320701A60F0BDFF010000F8B51300EA
:100250000200693216780400012E02D00220222EFC
:100260002AD10120002927D0002B25D02500683570
:100270002F780018012F1FD001382870200050302F
:10028000E164038043800020E0663230222E00D0FB
:1002900012201070206E094A8262094AC262094A1D
:1002A00002632268283201F0F3F8802100202268DE
:1002B00093680B4393602870F8BDC046D9070008C7
:1002C000EB03000833040008F8B51300020069329C
:1002D0000E0011780400012902D0022012292BD12E
:1002E0000120002E28D0002B26D0250068352F783D
:1002F0000018012F20D00138287020005830666582
:1003000003800020E066122901D1203100E0222183
:100310001170606E094A21688262094A2431C26202
:10032000084A0263320001F0B3F84021002022683D
:1003300093680B4393602870F8BDC046F70300082C
:100340002704000833040008020068321178030013
:10035000022001291FD0012111701900693109788B
:10036000122903D119687E308B6804E0222905D157
:10037000402019688B6883438B600AE0322908D1DA
:1003800080201B689968814399609968403881434F
:10039000996000201070704770B5050068352B78A3
:1003A00004000220012B1DD0012380212B70236823
:1003B000206E9A688A439A609A6840398A439A60A4
:1003C000002801D001F08FF8606E002801D001F004
:1003D0008AF801220020216869340B6893430B607E
:1003E0002270287070BD7047704710B5406AFFF7E3
:1003F000FBFF10BD7047406A0022030040215A33C2
:1004000010B51A80026893688B43936003006933C8
:100410001A78322A01D1203A00E001221A70FFF73F
:10042000E9FF10BD704710B5406AFFF7FBFF10BD34
:100430007047406A002302005A3210B5083A13810F
:1004400013800300012269331A70C36E0F32134305
:10045000C366FFF7EDFF10BD0421026893690B43EB
:1004600093617047010010B568310A780223012AB0
:100470000DD00C24036869301A68A2431A601A6808
:10048000043C22431A600123037000230B70180000
:1004900010BD010010B568310A780223012A0DD081
:1004A0000C24036869301A68A2431A601A68083C71
:1004B00022431A600123037000230B70180010BD43
:1004C000693000787047C06E70470300202170B516
:1004D00069331B7802008B430220122B26D11500B2
:1004E00052352B881168002B09D10A687E3082436F
:1004F0000A600A68403802430A60180016E0802447
:100500009668D06C6401A64209D11469002C06D10A
:1005100004880230E405E40D0C85D06403E0441C3B
:10052000D46402780A85581E2880002070BD02001D
:10053000102170B5693213788B430E39222B37D1D5
:100540000300802586685C3319880468436D6D015B
:10055000AE4208D10569002D05D1A48C2140198037
:100560000233436504E05D1C4565A48C214019708D
:1005700001005A310B88013B9BB20B8000218B425A
:1005800016D1202403681968A14319601178322913
:1005900002D11223137008E01C680649214001248F
:1005A00019609968A14399601470FFF723FF002137
:1005B000080070BDFFFEFFFFF7B51D0004000E0030
:1005C000019201F01DFD019B0700002B36D122682E
:1005D000D36933409E420FD06B1CF9D0002D0FD051
:1005E00001F00EFDC01B8542F1D209E06B1C05D164
:1005F000D36933409E42F9D0002021E0002D18D16C
:100600008021236803201A688A431A601A686039B7
:100610008A431A6019680B4A0A4001211A609A68D5
:100620008A439A6023006933197000236834237069
:1006300006E001F0E5FCC01B8542E1D32268D7E764
:10064000FEBDC046FFFEFFFFF7B506000193693609
:10065000337804000D00012B02D00220222B4DD153
:100660000120002D4AD0002A48D027006837397869
:100670000018012942D0012139700021E166222BA6
:1006800001D1103300E012233370230050331A805D
:100690005A80230052331A88002A1FD0013A1A8048
:1006A0008021019B00222000FFF786FF002801D057
:1006B000032023E0A3682268190080235B0199428C
:1006C00008D12369002B05D12B880235DB05DB0D12
:1006D0001385DEE72B7801351385DAE7019B40218E
:1006E0002000FFF769FF0028E2D13378322B01D1D7
:1006F000103B00E00123337000233B70FEBDF7B5D3
:10070000060001936936337804000D00012B02D0F6
:100710000220122B5CD10120002D59D0002A57D085
:10072000210068310F780018012F51D0013808706E
:100730000021E166122B01D1203300E02223337027
:100740002300802158331A805A80A268043349015B
:100750008A4206D12269002A01D11E4A07E0FF22FF
:1007600005E0002A04D12269002AF8D07F221A80ED
:100770001F8822005A321388002B1DD0013B1380A2
:100780002021019B00222000FFF716FF00281ED128
:10079000A2682368110080225201914207D1226988
:1007A000002A04D19B8C3B402B800235E1E79B8CD7
:1007B0003B402B700135DCE73378322B01D1203BF5
:1007C00000E00123002068343370207000E0032033
:1007D000FEBDC046FF01000010B5446A00222300A0
:1007E0008020216852331A808B6883438B602000FD
:1007F0000C4B4021FFF7E0FE23006933002805D0B1
:10080000032220001A70FFF713FE09E01A78322A3B
:1008100001D1103A00E001221A702000FFF7E3FD39
:1008200010BDC046F05500000022036810B5C26636
:100830001B6804001B0704D423681B685B0712D5E0
:1008400008E080210C4B8903FFF7B6FE0028F3D0A7
:1008500003200FE08021084B0022C9032000FFF78E
:10086000ABFE0028F4D12300012200206933683454
:100870001A70207010BDC046FFFFFF01030010B5C5
:100880006833197802000220012921D00121197052
:1008900059781368122902D199687E300CE0222918
:1008A00002D19968402007E0322907D14020996899
:1008B0000143996099680018014399600120196803
:1008C000014202D11968014319601000FFF7ACFF23
:1008D00010BD020010B56832117803000220012912
:1008E0000DD001218024186811700268A4012243F0
:1008F00002601A00693211701800FFF795FF10BDF1
:10090000020010B5683211780300022001290CD0D2
:100910000121186811700468044A224002601A001C
:10092000693211701800FFF77FFF10BDFFDFFFFF76
:1009300070B504000568C169226980682B6810439E
:1009400062693A4E10433A4A0843134003432B600E
:100950006A68384BA0691340E2681343226A6B60EF
:10096000AB681043344A13400343AB6080231B023F
:10097000B54208D1314A106B032202403048805CF6
:10098000994204D02DE02F4A95421ED108E0082854
:100990001DD801F09BFB071C0A1C0D1C1C1C12001F
:1009A000994227D100F0A0FA04E06168264807E0E8
:1009B00001F042FA4000616802E080206168400274
:1009C00001F08EFB83B2002003E099422CD101207C
:1009D00000230F211A07520F8B4321681343CB606A
:1009E00023E0082820D801F071FB051F0D1F101F00
:1009F0001F1F170000F078FA616801F071FB80B2E8
:100A0000E8600FE06168114802E001F015FA6168E2
:100A100001F066FB80B204E080206168000201F012
:100A20005FFBF060002000E0012070BD0038014055
:100A3000F369FFFFFFCFFFFFFFF4FFFF001002404D
:100A400000260008004400400024F40000127A0050
:100A5000436A30B5DA0706D50168284A4C68224057
:100A6000846A22434A609A0706D50168244A4C6882
:100A70002240C46A22434A605A0706D50168214AC7
:100A80004C682240046B22434A601A0706D501686D
:100A90001D4A4C682240446B22434A60DA0606D560
:100AA00001681A4A8C682240846B22438A609A0645
:100AB00006D50168164A8C682240C46B22438A60BE
:100AC0005A0610D50168134A4D68046C2A40224327
:100AD0004A6080225203944205D14C680E4A22405B
:100AE000446C22434A601B0606D501680B4B4A68DA
:100AF0001340826C13434B6030BDC046FFFFFDFFC7
:100B0000FFFFFEFFFFFFFBFFFF7FFFFFFFEFFFFF8A
:100B1000FFDFFFFFFFFFEFFFFFFF9FFFFFFFF7FF7D
:100B200070B5041E01D1012028E0050069352B783D
:100B3000002B01D1FFF7F4FA0223012122682B7068
:100B4000136820008B431360FFF7F2FE0128EAD000
:100B5000636A002B02D02000FFF77AFF2368084A5F
:100B6000596820000A402A215A609A688A439A608C
:100B70001A6829390A431A60FFF756FE70BDC0464D
:100B8000FFB7FFFF70B5041E01D101202CE0050066
:100B900069352B78002B01D1FFF7C2FA022301211E
:100BA00022682B70136820008B431360FFF7C0FE90
:100BB0000128EAD0636A002B02D02000FFF748FF2B
:100BC00023680A4A596820000A4022215A609A681C
:100BD0008A439A609A681A390A439A601A680739F0
:100BE0000A431A60FFF720FE70BDC046FFB7FFFF43
:100BF000F8B504000D001600002801D1012037E0EF
:100C0000070069373B78002B01D1FFF789FA0223EF
:100C1000012122683B70136820008B431360FFF7AB
:100C200087FE0128EAD0636A002B02D02000FFF77C
:100C30000FFF23680F4A59680A402A215A609A68B0
:100C40008A439A6080221201964205D15A682D0685
:100C50001202120A15435D601968074A20000A4013
:100C6000012116431E601A680A431A60FFF7DCFD73
:100C7000F8BDC046FFB7FFFFFFF7FFFF70B5890162
:100C8000002814DA0F23C0B20340083B114A9B0826
:100C900003249B009B18FF222040A04014000A4020
:100CA00084408240DD69A5432A43DA6111E082086D
:100CB000094B03259200D218FF232840A8401D00AD
:100CC000C02485400B408340A4001659AE433343F3
:100CD000135170BD00ED00E000E100E01F2318405B
:100CE0001E3B8340014A13607047C04600E100E0AC
:100CF0001F2318401E3B8340014AD3677047C046FC
:100D000004E100E0BFF34F8F024A034BDA60BFF308
:100D10004F8FFEE70400FA0500ED00E0094A431E8C
:100D2000012093420DD8C020074A084953600B6A3E
:100D300000061B021B0A03430B620020072390607E
:100D400013607047FFFFFF0010E000E000ED00E0DF
:100D500000280FDA0F22C3B21A40083A92080B4952
:100D6000920052185068032213409340D8408009E3
:100D700010400AE08308C033054A9B009A580323B9
:100D800018409840C24090091840704718ED00E0A4
:100D900000E100E01F2318401E3B8340014A5360DE
:100DA0007047C046FCE100E0054B020059681F2374
:100DB0001A401E3B934018000840431E984170475C
:100DC000FCE100E01F23C02218401E3B8340024983
:100DD00052008B507047C04600E100E0054B1A6896
:100DE000042802D11043186002E004218A431A60EB
:100DF0007047C04610E000E0704710B5FFF7FCFFF9
:100E000010BDC04681210B4B1A680A431A6059680D
:100E1000094A0A405A601968084A0A401A60196863
:100E2000074A0A401A6000225A60DA621A639A601E
:100E30007047C046001002400CF8FFF0FFFFF6FEBE
:100E4000FFFFFBFF0120704701207047802230B573
:100E50000E4C9202636987B01343636180235B0089
:100E60000193FE3B029390200133049300230D0075
:100E7000C00501A90393059300F0C6F86268044B0E
:100E800013401D43656007B030BDC04600100240EE
:100E9000FFFFFFF08021034A090313680B4313602F
:100EA0007047C04600100240024A034B11680B40D5
:100EB0001360704700100240FFFFF7FF01207047EA
:100EC00010B500F0B9FF054B054A5B681B061B0F08
:100ED000D35CD840034B186010BDC04600100240E0
:100EE000042600080000002010B5FFF7E9FF044BBE
:100EF000044A5B685B055B0FD35CD84010BDC046FD
:100F000000100240042600080F230360274B1A68D4
:100F1000520301D5052205E08022196852020A40D9
:100F200000D00122012142601A680A4001D0C1604C
:100F300000E0C2601A681206D20E02611A6A5207F5
:100F400001D5052206E00121184A126A0A4001D0A3
:100F5000816000E0826001215A6A0A4001D001628A
:100F600000E002621A68D20101D5022200E00122EB
:100F700042628022596852020A408262F022596815
:100F800092030A4002630F22D96A0A400121C26219
:100F90005A6B0A4001D0416100E042615B6B1B0665
:100FA000DB0E83610023C3617047C046001002401E
:100FB0000723032203600A4B10B55C68224042609D
:100FC000F0225C68224082605A68E023DB00134014
:100FD000C360044B1A68012313400B6010BDC04668
:100FE0000010024000200240704710B58024044BDE
:100FF0009B68234203D0FFF7F7FF024B1C7010BD24
:10100000001002400A100240F0B50B6885B003934F
:1010100000230291039ADA4000D190E001229A4025
:10102000039C1440019400D187E0029A1021526879
:1010300016008E43022E0ED107251D40AD0001394A
:10104000A940DC08A4000419276A8F4302990969A2
:10105000A9400F43276203245F00BC400321E443FF
:101060001140B9400568013E25400D430560012E41
:1010700010D802998568CE682540BE4035430126C8
:101080009E40012185604568B54316090E409E408B
:1010900035434560C56802992C408D688021BD406C
:1010A00049052C43C4600A4247D00121254D03273E
:1010B000AC691F400C43AC610F2423499D08AD006F
:1010C000BF006D18BC409021AE68C905A64300243E
:1010D00088420CD01D490134884208D01C49013493
:1010E000884204D01B490334884200D1023CBC40F2
:1010F000019934430E00AC60174CCD4327683E4342
:10110000D10301D43E002E4026606768019E3E4315
:10111000910301D43E002E406660A768019E3E43C5
:10112000D10201D43E002E40A660E668019F3743FD
:10113000920201D42E403700E76001336AE705B020
:10114000F0BDC0460010024000000140000400480D
:1011500000080048000C0048000401400023F7B5D7
:101160000191019ADA4054D001279F40019A3A40F8
:1011700000924CD003255A00954007260F21EA43E0
:101180001E40B600B140046814400460DC08A400AE
:101190000419256A8D432562846803251440846000
:1011A00044681C49BC430F274460C4681D4022406A
:1011B000C2609A089200AD005218AF409021966824
:1011C00000243E40C90588420CD0134901348842AE
:1011D00008D012490134884204D0114901348842B0
:1011E00000D00234AC40A64211D100999468CD439E
:1011F000BC4394600B4A14682C40146054682C4023
:10120000546094682C409460D4682540D5600133C4
:10121000A7E7F7BD000001400004004800080048AF
:10122000000C00480004014000690840411E88414C
:10123000C0B27047002A00D1090481617047436938
:10124000594041617047802382B05B020193019B4A
:101250000B430193019BC361C161019BC361C369DE
:101260000193C36901201B0C984302B0704770477B
:10127000044B10B55A69104202D05861FFF7F7FFCE
:1012800010BDC046000401400121114B1A680A43F9
:101290001A6058680F4A02405A6018680E4A0240A5
:1012A0001A6018680D4A02401A6058680C4A0240D9
:1012B0000F205A60DA6A8243DA62186B094A0240E8
:1012C0001A635A6B8A435A6300229A607047C04679
:1012D000001002400CB8FF08FFFFF6FEFFFFFBFF07
:1012E000FFFFC0FF2CFEFFFF0C2370B5124E134D05
:1012F00072681340042B01D0082B02D0104B2B60D6
:1013000011E00F2174687268A40C0C400234F36A77
:10131000D20305D519400131094800F0E1FE00E093
:10132000084844432C6073682A681B061B0FEB189F
:101330001B79DA402A6070BD0010024000000020D6
:1013400000127A0000093D00030010B50120002BB7
:1013500017D018680B4A01689C6811405A682243EC
:10136000DC6822431C6922435C6922439C69224356
:10137000DC6922430A4302600020012258630233E1
:10138000DA7710BD0FC0FFFF70B50123002855D0DC
:10139000841CE27F022A51D001210368284D1A687B
:1013A0008A431A60002249181A605A609A60DA600B
:1013B000AB4210D0234A1E3193420CD0224A9342B2
:1013C00005D0224A8021934204D0890203E0802183
:1013D000890000E089011E4A51600821AB4211D00A
:1013E000184E7831B3420DD017498B4205D01749BA
:1013F0008B4205D08021090304E08021090101E02E
:101400008021090251600421AB4211D00D4D3C31C5
:10141000AB420DD00C498B4205D00C498B4205D014
:101420008021C90204E08021C90001E08021C901B6
:101430000023516043630130E377C377180070BD28
:10144000080002401C0002403000024044000240FC
:1014500000000240F0B50226471CFD7F3400012D3C
:1014600014D001258419FD77E67704682668AE4319
:10147000266063604368102B02D1A260E16001E046
:10148000A160E26023681D43256000242000F0BDB8
:10149000F0B50225471CFE7F2C00012E21D001262D
:1014A0004419FE77E57704682568B54325606360D5
:1014B0004368102B02D1A260E16001E0A160E2600C
:1014C0000222236813432360236892181343236086
:1014D00023680432134323602368073A13432360CD
:1014E00000242000F0BDF8B501250268040013684F
:1014F000FA27AB43136000F083FD0600BF002368AA
:10150000186828400FD000F07BFD801BB842F6D948
:1015100020220320636B13436363A31CD87700234B
:101520000134E37704E00122A31CA418DA77E07702
:10153000F8BDF0B585B004000191170003685E4E58
:1015400000290FD10225B34225D05C4A1E359342B3
:1015500021D05B4A934215D05A4A8025934214D039
:10156000AD0218E00425B34215D0544A3C359342ED
:1015700011D0534A93420AD0524A8025934209D04F
:10158000ED0208E08025AD0005E0AD0103E0802517
:10159000ED0000E0ED0100F033FD02904A4A2368BF
:1015A0001068110028424ED1126803920822B342FB
:1015B00011D04248783283420DD0414A934205D03F
:1015C000404A934205D08022120304E08022120197
:1015D00001E080221202039810421ED00822B3427A
:1015E00011D03648783283420DD0354A934205D027
:1015F000344A934205D08022120304E08022120173
:1016000001E08022120201204A600422636B03433E
:101610006363A31CDA7724180BE07B1CBED0002F79
:101620000AD120220320636B13436363A31CD87782
:1016300001340023E3773DE000F0E2FC029BC01A96
:101640008742ABD2EDE7019AA01C002A17D10232E3
:10165000B34211D0194D1E32AB420DD0184A9342FD
:1016600005D0184A934205D08022920204E08022DD
:10167000920001E0802292014A60012316E00422D8
:10168000B34211D00D4D3C32AB420DD00C4A9342C7
:1016900005D00C4A934205D08022D20204E0802279
:1016A000D20001E08022D20111234A60C3770020DA
:1016B0000134E07705B0F0BD080002401C00024094
:1016C00030000240440002400000024070B5036850
:1016D000664D674E040029680822B34211D0654860
:1016E000783283420DD0644A934205D0634A9342D4
:1016F00005D08022120304E08022120101E0802242
:10170000120211422AD008221968114226D0196803
:1017100091431960B34211D0564978328B420DD0B3
:10172000554A934205D0554A934205D08022120370
:1017300004E08022120101E0802212026A6001228C
:10174000636B134363630332A31CDA770022631CC9
:10175000DA77236B934201D02000984723682968E9
:101760000422B34211D043483C3283420DD0424A56
:10177000934205D0414A934205D08022D20204E030
:101780008022D20001E08022D201114227D0042120
:101790001A680A4223D01A68920602D41A688A4349
:1017A0001A600422B34211D032493C328B420DD030
:1017B000314A934205D0314A934205D08022D20269
:1017C00004E08022D20001E08022D2016A6011226E
:1017D000A31CDA77E36A002B01D020009847236826
:1017E00029680222B34211D022481E3283420DD012
:1017F000214A934205D0214A934205D08022920289
:1018000004E08022920001E08022920111422CD05B
:1018100002211A680A4228D01A68920602D41A686D
:101820008A431A600222B34211D012491E328B42FF
:101830000DD0114A934205D0104A934205D0802220
:10184000920204E08022920001E0802292016A600C
:101850000122636B6363A31CDA77A3180022DA7793
:10186000A36A934201D02000984770BD0000024057
:10187000080002401C0002403000024044000240C8
:101880000230C07F7047406B7047C046F8B5060015
:101890000F000A24002539003000FFF7C5FC01388D
:1018A00043424341ED18032D04D0013C002CF2D1FA
:1018B000200000E00120F8BD114B10B55A6901006D
:1018C00010421BD15861802818D19020C005FFF725
:1018D000DDFF002812D00B4B0B4C5A692100501C25
:1018E0000A22586100F006FE0849200000F006FEBA
:1018F000074B322221000748FEF7A6FE10BDC04666
:101900000004014094040020140000203C2600083C
:1019100088130000B00400200368F7B50400DB075B
:1019200003D423689B074DD493E00C23BA4D6A6817
:101930001A40042A06D06A681340082B0AD16B6843
:10194000DB0307D52B689B03EBD56368012BE8D03D
:1019500001209DE10023B14E337000F051FB019650
:1019600080260700B6022B68334207D000F048FB00
:10197000AB4BC01B9842F6D9032089E12379019A29
:1019800013706368002B0ED000F03AFB802607002E
:10199000B6022B683342C4D100F032FBA04BC01B0F
:1019A0009842F6D9E8E700F02BFB80260700B60244
:1019B0002B683342B5D000F023FB994BC01B9842F3
:1019C000F6D9D9E70C23944D6A681A4206D06A68A2
:1019D0001340082B10D16B68DB030DD42B689B07D9
:1019E00002D5E368012BB3D1F8212B6822698B4320
:1019F000D20013432B602CE0E3680122002B18D0A7
:101A00002B68022613432B6000F0FAFA07002B68BC
:101A10008149334205D100F0F3FAC01B6428F6D99E
:101A2000AAE7F8200B6822698343D20013430B60B6
:101A30000FE02B68022693432B6000F0E1FA0700C9
:101A40002B68334205D000F0DBFAC01B6428F7D9BD
:101A500092E723681B0703D423685B0752D524E071
:101A6000236A01226C4D002B0FD06B6A02261343B0
:101A70006B6200F0C5FA07006B6A3342ECD100F0EC
:101A8000BFFAC01B6428F7D976E76B6A0226934336
:101A90006B6200F0B5FA07006B6A3342DCD000F0ED
:101AA000AFFAC01B6428F7D966E7802280275A4D19
:101AB0005205EB695B4E1343EB6133687F003B4398
:101AC000336000F09DFA019033683B421ED005223E
:101AD0002B6A022693432B6200F092FA07002B6ACE
:101AE0004D49334219D105200B6AA2688343134341
:101AF0000B62012A1FD100F083FA022607002B6A2D
:101B0000334211D02368DB0623D464E000F078FA76
:101B1000019BC01A6428D7D92EE700F071FA404B18
:101B2000C01B9842DBD927E700F06AFA3C4BC01B88
:101B30009842E4D920E700F063FA022607002B6AF6
:101B40003342DFD000F05CFA354BC01B9842F6D927
:101B500012E76269304D0423012A1BD1696B02260A
:101B60000B436B636B6B1A436A6300F049FA07001F
:101B70006B6B2949334205D100F042FAC01B64283F
:101B8000F6D9F9E6F8204B6BA2698343D2001343E0
:101B90004B6320E005320AD1F8216A6B9A436A63ED
:101BA0006B6BA2698B43D20013436B6313E06A6BC8
:101BB0000226134301226B636B6B93436B6300F04C
:101BC0001FFA07006B6B334205D000F019FAC01BF7
:101BD0006428F7D9D0E6626A002A01D1002057E0D4
:101BE0000C230D4D012069680B40082B50D00E4B83
:101BF000022A3CD12A68802613402B6000F000FAAC
:101C00000700B6042A68044B32420FD000F0F8F9FE
:101C1000C01B6428F6D9AFE6001002400210024053
:101C20008813000000700040FFFFFFFE0F21DA6AFA
:101C30008A43E16A0A43DA62A16A206B5A68084360
:101C4000144980240A40802102435A601A684904DA
:101C50000A431A6000F0D4F90600A4042B6823425A
:101C6000BCD100F0CDF9801B6428F7D984E62A683E
:101C7000802413402B6000F0C3F90600A4042B68F5
:101C80002342ABD000F0BCF9801B6428F7D973E67F
:101C9000FEBDC046FFFFC2FF0123F7B5624A0E003A
:101CA0001168040019401700B1425FD211689943CE
:101CB00031431160126813409E4201D00120B1E00F
:101CC0000268930706D5F02058494B688343A06803
:101CD00003434B60D3070BD423685B0700D49DE01C
:101CE0005249534B4A681340E26813434B6095E0F6
:101CF0004E4D63682A68012B02D1920307D4DDE7B9
:101D0000022B02D1920102D4D8E79207D6D5032143
:101D10006A680C278A4313436B6000F071F96368AB
:101D20000600012B0BD16B683B40042BD4D000F094
:101D300067F9404B801B9842F5D9032072E0022BD3
:101D400010D16B683B40082BC6D000F059F9394BD5
:101D5000801B9842F5D9F0E700F052F9354B801B13
:101D60009842EAD86B683B42F6D1B5E70268930720
:101D700006D5F0202D494B688343A06803434B6090
:101D8000D30709D401223B68934333433B603B684C
:101D90001A40964292D19FE7244D63682A68012B2E
:101DA00002D1920307D489E7022B02D1920102D417
:101DB00084E7920782D503216A688A4313436B60E4
:101DC00000F01EF963680190012B0CD10C226B68A6
:101DD0001340042BD6D000F013F9019BC01A154B09
:101DE0009842F3D9A9E7022B13D10C226B68134058
:101DF000082BC7D000F004F9019BC01A0D4B984284
:101E0000F3D99AE700F0FCF8019BC01A094B9842FD
:101E100093D80C226B681342F4D1B3E7032000F08F
:101E2000C5F80020FEBDC046002002400010024060
:101E3000FFF8FFFF881300000C2370B50C4D6A6893
:101E40001340082B11D10B480733910C1940445C07
:101E5000E96A0B40C318197CD30303D5064800F088
:101E60003FF900E00548604300E0034870BDC0460C
:101E7000001002401426000800127A0000093D00FC
:101E80000368F7B50500DB0347D5802280272D4C7A
:101E90005205E3692C4E1343E36133687F003B43F3
:101EA000336000F0ADF8019033683B4207D100F099
:101EB000A7F8019BC01A6428F6D9032041E0C0218D
:101EC000226A6868890042401E4B0A420CD0802674
:101ED000196A1E4A76020A40196A314319621E6A5B
:101EE0001B49314019621A6280235B00984206D078
:101EF000226A164B13406A68134323620DE000F018
:101F00007FF802260700236A3342F1D100F078F807
:101F1000104BC01B9842F6D9CFE72A68D30706D5E5
:101F2000032008490B6B8343A86803430B6300201D
:101F3000930606D5102203490B6B9343EA681343BB
:101F40000B63FEBD0010024000700040FFFCFFFF6D
:101F5000FFFFFEFF88130000C022084B92000360C1
:101F6000074B196A0A4042600322196B0A408260DB
:101F70001A6B10231340C3607047C0462100010054
:101F80000010024070477047012210B50024064B34
:101F900052421A611C61DA60DC609A629C6200F055
:101FA00092F8200010BDC0460010024010B5040099
:101FB000FEF786FFFA21890000F092F8FEF7AEFEE8
:101FC0000120002221004042FEF758FE002010BDF3
:101FD0001021064A10B5136803200B431360FFF766
:101FE000E5FF00F06FF8002010BDC0460020024061
:101FF000024A1368013313607047C046AC040020E6
:10200000014B18687047C046AC0400200221024A08
:1020100013688B431360704710E000E00221024A0E
:1020200013680B431360704710E000E013B5019094
:10203000FFF7E6FF0400FFF7E3FF019B001B984258
:10204000F9D313BD0048704700010201014B186825
:10205000000C704700580140024B18680005000D45
:102060007047C046005801400221024A53680B43A2
:1020700053607047005801400221024A53688B4365
:1020800053607047005801400421024A53680B43D3
:1020900053607047005801400421024A53688B4343
:1020A00053607047005801407047802010B5800190
:1020B000FFF702FC10BDFEE77047704710B5FFF751
:1020C00097FF10BD704770477047704702B4714664
:1020D00049084900095C49008E4402BC7047C0466B
:1020E000002243088B4274D303098B425FD3030A57
:1020F0008B4244D3030B8B4228D3030C8B420DD36A
:10210000FF22090212BA030C8B4202D312120902F7
:1021100065D0030B8B4219D300E0090AC30B8B4235
:1021200001D3CB03C01A5241830B8B4201D38B03E3
:10213000C01A5241430B8B4201D34B03C01A524188
:10214000030B8B4201D30B03C01A5241C30A8B42CB
:1021500001D3CB02C01A5241830A8B4201D38B02B6
:10216000C01A5241430A8B4201D34B02C01A52415A
:10217000030A8B4201D30B02C01A5241CDD2C309CC
:102180008B4201D3CB01C01A524183098B4201D348
:102190008B01C01A524143098B4201D34B01C01A33
:1021A000524103098B4201D30B01C01A5241C308AB
:1021B0008B4201D3CB00C01A524183088B4201D31A
:1021C0008B00C01A524143088B4201D34B00C01A06
:1021D0005241411A00D20146524110467047FFE772
:1021E00001B5002000F006F802BDC0460029F7D076
:1021F00076E770477047C04670B50D4E0D4D002410
:10220000AD1BAD1005D0A300F35801349847A5428B
:10221000F9D100F0E9F9084E084D0024AD1BAD10CE
:1022200005D0A300F35801349847A542F9D170BDF9
:10223000682600086826000868260008702600083E
:10224000034B10B5002B02D0024800F005F810BD7A
:10225000000000006922000810B5010000230022E0
:10226000002000F01BF810BD70B5094B094CE41AB2
:10227000A41009D0084AA518AD00ED182B68013C40
:102280009847043D002CF9D100F0B4F970BDC04668
:102290007026000874260008FFFFFF3FF8B544468B
:1022A0005F4656464D469B462F4BF0B41C68A42310
:1022B0005B000500E0580E00904600284BD04368B4
:1022C0001F2B0DDC5C1C002D21D102339B004460D0
:1022D0001E5000203CBC90469946A246AB46F8BD35
:1022E000224B002B3CD0C820400000E000BF00285B
:1022F00036D0A42200235200A15843600160A050B0
:1023000040328350043283500124002DDDD09A00E6
:1023100091468144424688214F467A50C422520059
:102320009046804442468739994012688A460A435B
:102330009446424661461160842249465F465200F7
:102340008F50022DC1D1020055468D32FF321168E7
:102350000D431560B9E720004D30FF30E050AEE787
:1023600001204042B6E7C0463826000800000000C1
:10237000F0B593B0FFF72CFE002305930F93109355
:10238000A02302229B0305A80E921193FFF7C4FA23
:10239000002800D0FEE702230727039004900121C4
:1023A00001A801970293FFF777FC051E00D0FEE716
:1023B0008022274E92027369264C13437361264B89
:1023C000A0606360902003232100E360C0057D339B
:1023D0002360FEF719FE2A0002213800FEF74EFCAA
:1023E0003800FEF77BFC022390200C276360C005B9
:1023F000013B210023612760A560E560FEF704FE34
:102400008022F36992021343F361144E144B30009F
:10241000336096239B017360B560F5603561B561EB
:102420007761FEF77DFB002800D0FEE70D4D0A2204
:102430002900606900F05EF80B49280000F05EF8A2
:102440000A4B322229003000FEF7FEF8FEE7C046B4
:10245000001002409404002000002110B00400206D
:1024600000440040140000203C26000888130000AF
:102470000D488546002103E00C4B5B584350043166
:102480000B480C4B42189A42F6D30B4A02E0002349
:1024900013600432094B9A42F9D3FEF7F5FEFFF7B9
:1024A000ABFEFFF765FFFEE7FF1F00207426000864
:1024B000000000207804002078040020200500207F
:1024C000FEE70000931E10B50C00222B0ED80A2A3E
:1024D00005D00021611800F041F8200010BD00284F
:1024E000F7DA2D2340420B700121F3E7002300208F
:1024F0000B70F3E710B5FFF7E5FF10BD70B50500F1
:10250000830717D102680F4BD31893430E4A140068
:1025100013420FD1043002680A4BD318934323426D
:1025200008D104300268074BD31893432342F1D0FB
:1025300000E001300378002BFBD100F007F8280001
:1025400070BDC046FFFEFEFE80808080031C0A78BE
:1025500001311A700133002AF9D17047F0B557469E
:1025600045464E46E0B48AB090466A461D4B0D0083
:10257000060013CB13C213CB13C213CB13C21B78A9
:10258000EA4613704346023B2F000024222B01D958
:1025900024E04C46631C300041469946FFF726FE76
:1025A00053465B5C30003B704146FFF799FD0137B5
:1025B000061EEED14B46E8540023002C07D0EA5CFF
:1025C000295DE9542A550133013CA342F7DB280079
:1025D0000AB01CBC90469946A246F0BD2C70002063
:1025E000F6E7C04640260008F8B5C046F8BC08BC6F
:1025F0009E467047F8B5C046F8BC08BC9E4670477A
:1026000000040802000000000102030401020304A8
:102610000607080902030405060708090A0B0C0D42
:102620000E0F10100102030405060708090A0B0C1F
:102630000D0E0F104300000050000020200A0D0076
:102640003031323334353637383961626364656628
:102650006768696A6B6C6D6E6F7071727374757692
:082660007778797A0000000090
:0826680041220008E90000080E
:04267000C10000089D
:1026740000127A00000000000000000001020304C0
:10268400060708090A0D20000000000000000000F1
:102694000000000000000000000000000000000036
:1026A4000000000000000000000000000000000026
:1026B4000000000000000000FFFFFFFF000000001A
:1026C400000000003C030020A40300200C040020B0
:1026D40000000000000000000000000000000000F6
:1026E40000000000000000000000000000000000E6
:1026F4000000000034260008000000000000000074
:1027040000000000000000000000000000000000C5
:1027140000000000000000000000000000000000B5
:1027240000000000000000000000000000000000A5
:102734000000000000000000000000000000000095
:102744000000000000000000000000000000000085
:102754000000000000000000000000000000000075
:102764000000000000000000010000000000000064
:102774000E33CDAB34126DE6ECDE05000B00000029
:102784000000000000000000000000000000000045
:102794000000000000000000000000000000000035
:1027A4000000000000000000000000000000000025
:1027B4000000000000000000000000000000000015
:04000005080024715A
:00000001FF
